:1000000014C02CC02BC02AC068C128C028C026C07C
:1000100025C024C023C022C021C020C01FC01EC0D4
:100020001DC01CC01BC01AC019C011241FBECFEDBB
:10003000CDBF10E0A0E6B0E0E2E8F4E002C0059039
:100040000D92A436B107D9F720E0A4E6B0E001C0D4
:100050001D92A937B207E1F7BDD011C2D1CF1F92CF
:100060000F920FB60F9211242F938F939F9380912D
:100070006700873208F43DC01092670026B3909164
:100080006E002095292780916600822380958093B9
:1000900066009091650092239827909365008223D3
:1000A000892390916E00982790936E0020916E00A6
:1000B00090916D008223892B80936D0080916E005A
:1000C000877021F481E38093640018C080916400FC
:1000D000815019F08093640011C084E18093640022
:1000E00080916E0090916C008770892B80936C00DA
:1000F00005C0809167008F5F809367009F918F910B
:100100002F910F900FBE0F901F901895F89490911B
:100110006D00892390916D00982790936D007894DD
:100120000895F89490916C00892390916C00982721
:1001300090936C0078940895F89490916E00909547
:100140008923E4DF0895EDDFE1DF089587B3887F39
:1001500087BB88B3876088BB089581E0EDDF882383
:1001600021F080916300865F4FD182E0E5DF84E07B
:10017000E3DF882321F0809163008A5045D181E03C
:10018000E2DF82E0E0DF84E0DEDF08958091680056
:100190008C33C0F010926800809160008F5F809374
:1001A0006000809160008C3368F010926000809154
:1001B00061008F5F8093610080916100883110F051
:1001C00010926100089587B3806387BBD19AC59868
:1001D000D9980895F8DFBADF1ED026D17894CFE6FB
:1001E000D0E081EC888319821A821B8264E0CE0100
:1001F0002AD18B8180936000B0DF64E08FE690E0CD
:1002000022D12FE38DE093E0215080409040E1F730
:1002100000C00000F1CF87B3886487BB81B38F65CE
:1002200081BBD09A969A88B3886488BBD89A82B3E7
:10023000807F82BB8D9A83E280BF81E083BF809103
:1002400063008CBF89B7826089BF8EB589618EBD1E
:1002500088EE93E095BD84BD89B7806489BF089519
:100260008A3090F0843190F08E3190F0883290F0A6
:10027000823390F08C3390F0863490F0803590F09B
:100280008A3590F089E0089580E0089581E008952E
:1002900082E0089583E0089584E0089585E008955C
:1002A00086E0089587E0089588E0089592B3907FEE
:1002B00092BB92B3282F2170922B92BB92B3282F1E
:1002C0002270922B92BB92B3282F2470922B92BB58
:1002D00092B38870892B82BB08951F920F920FB63C
:1002E0000F9211242F933F934F935F936F937F93BC
:1002F0008F939F93AF93BF93EF93FF938091690088
:1003000090916A000196883E23E0920728F490932A
:100310006A008093690010C010926A001092690010
:10032000809168008F5F8093680030DF90916B0050
:1003300081E0892780936B00C69A969AC39AD89ACF
:10034000949880916200823091F018F4813031F0FD
:100350004AC0833031F1843089F145C08091610019
:100360007FDFA4DFC69882E0809362003CC080916A
:10037000610076DF20916100982F9295990F907E11
:10038000981B990F990F981B892F880F820F8EDF6A
:1003900080916B008111949A969883E0809362001B
:1003A00022C0809160005CDF81DF80916B00811151
:1003B000949AC39884E08093620015C08091600095
:1003C0004FDF20916000982F9295990F907E981B97
:1003D000990F990F981B892F880F820F67DFD89884
:1003E00081E080936200FF91EF91BF91AF919F9167
:1003F0008F917F916F915F914F913F912F910F90CE
:100400000FBE0F901F9018958F3F19F480936300D3
:1004100007C0811103C01092630002C08093630083
:10042000809163008CBF089587B3806A87BB82E2A6
:100430008DB908958FB9C59888E0689A00008150F9
:10044000E1F78FB10895EF92FF920F931F93CF932F
:10045000DF937C01D62FC0E087010C0F111DF8013E
:100460008081E8DFF8018083CF5FDC17A8F781E0A7
:10047000DF91CF911F910F91FF90EF900895F89425
:02048000FFCFAC
:04048200250D0164DF
:00000001FF
